{
  "address": "0x2E983A1Ba5e8b38AAAeC4B440B9dDcFBf72E15d1",
  "abi": [
    {
      "inputs": [
        {
          "internalType": "address",
          "name": "vrfCoordinatorV2",
          "type": "address"
        },
        {
          "internalType": "uint256",
          "name": "_minContrbution",
          "type": "uint256"
        },
        {
          "internalType": "bytes32",
          "name": "gasLane",
          "type": "bytes32"
        },
        {
          "internalType": "uint64",
          "name": "subscriptionId",
          "type": "uint64"
        },
        {
          "internalType": "uint256",
          "name": "interval",
          "type": "uint256"
        },
        {
          "internalType": "uint32",
          "name": "callbackGasLimit",
          "type": "uint32"
        }
      ],
      "stateMutability": "nonpayable",
      "type": "constructor"
    },
    {
      "inputs": [],
      "name": "Lottery__LotteryNotOpen",
      "type": "error"
    },
    {
      "inputs": [],
      "name": "Lottery__SendMoreToEnterLottery",
      "type": "error"
    },
    {
      "inputs": [],
      "name": "Lottery__TransferFailed",
      "type": "error"
    },
    {
      "inputs": [
        {
          "internalType": "uint256",
          "name": "currentBalance",
          "type": "uint256"
        },
        {
          "internalType": "uint256",
          "name": "numPlayers",
          "type": "uint256"
        },
        {
          "internalType": "uint256",
          "name": "lotteryState",
          "type": "uint256"
        }
      ],
      "name": "Lottery__UpkeepNotNeeded",
      "type": "error"
    },
    {
      "inputs": [
        {
          "internalType": "address",
          "name": "have",
          "type": "address"
        },
        {
          "internalType": "address",
          "name": "want",
          "type": "address"
        }
      ],
      "name": "OnlyCoordinatorCanFulfill",
      "type": "error"
    },
    {
      "anonymous": false,
      "inputs": [
        {
          "indexed": true,
          "internalType": "address",
          "name": "player",
          "type": "address"
        }
      ],
      "name": "LotteryEnter",
      "type": "event"
    },
    {
      "anonymous": false,
      "inputs": [
        {
          "indexed": true,
          "internalType": "uint256",
          "name": "requestId",
          "type": "uint256"
        }
      ],
      "name": "RequestedLotteryWinner",
      "type": "event"
    },
    {
      "anonymous": false,
      "inputs": [
        {
          "indexed": true,
          "internalType": "address",
          "name": "player",
          "type": "address"
        }
      ],
      "name": "WinnerPicked",
      "type": "event"
    },
    {
      "inputs": [
        {
          "internalType": "bytes",
          "name": "",
          "type": "bytes"
        }
      ],
      "name": "checkUpkeep",
      "outputs": [
        {
          "internalType": "bool",
          "name": "upkeepNeeded",
          "type": "bool"
        },
        {
          "internalType": "bytes",
          "name": "",
          "type": "bytes"
        }
      ],
      "stateMutability": "view",
      "type": "function"
    },
    {
      "inputs": [],
      "name": "enterLottery",
      "outputs": [],
      "stateMutability": "payable",
      "type": "function"
    },
    {
      "inputs": [],
      "name": "getInterval",
      "outputs": [
        {
          "internalType": "uint256",
          "name": "",
          "type": "uint256"
        }
      ],
      "stateMutability": "view",
      "type": "function"
    },
    {
      "inputs": [],
      "name": "getLastTimeStamp",
      "outputs": [
        {
          "internalType": "uint256",
          "name": "",
          "type": "uint256"
        }
      ],
      "stateMutability": "view",
      "type": "function"
    },
    {
      "inputs": [],
      "name": "getLotteryBalance",
      "outputs": [
        {
          "internalType": "uint256",
          "name": "",
          "type": "uint256"
        }
      ],
      "stateMutability": "view",
      "type": "function"
    },
    {
      "inputs": [],
      "name": "getLotteryState",
      "outputs": [
        {
          "internalType": "enum Lottery.LotteryState",
          "name": "",
          "type": "uint8"
        }
      ],
      "stateMutability": "view",
      "type": "function"
    },
    {
      "inputs": [],
      "name": "getMinContribution",
      "outputs": [
        {
          "internalType": "uint256",
          "name": "",
          "type": "uint256"
        }
      ],
      "stateMutability": "view",
      "type": "function"
    },
    {
      "inputs": [],
      "name": "getNumWords",
      "outputs": [
        {
          "internalType": "uint256",
          "name": "",
          "type": "uint256"
        }
      ],
      "stateMutability": "pure",
      "type": "function"
    },
    {
      "inputs": [],
      "name": "getNumberOfPlayers",
      "outputs": [
        {
          "internalType": "uint256",
          "name": "",
          "type": "uint256"
        }
      ],
      "stateMutability": "view",
      "type": "function"
    },
    {
      "inputs": [
        {
          "internalType": "uint256",
          "name": "index",
          "type": "uint256"
        }
      ],
      "name": "getPlayer",
      "outputs": [
        {
          "internalType": "address",
          "name": "",
          "type": "address"
        }
      ],
      "stateMutability": "view",
      "type": "function"
    },
    {
      "inputs": [],
      "name": "getPlayers",
      "outputs": [
        {
          "internalType": "address payable[]",
          "name": "",
          "type": "address[]"
        }
      ],
      "stateMutability": "view",
      "type": "function"
    },
    {
      "inputs": [],
      "name": "getRecentWinner",
      "outputs": [
        {
          "internalType": "address",
          "name": "",
          "type": "address"
        }
      ],
      "stateMutability": "view",
      "type": "function"
    },
    {
      "inputs": [],
      "name": "getRequestConfirmations",
      "outputs": [
        {
          "internalType": "uint256",
          "name": "",
          "type": "uint256"
        }
      ],
      "stateMutability": "pure",
      "type": "function"
    },
    {
      "inputs": [],
      "name": "manager",
      "outputs": [
        {
          "internalType": "address",
          "name": "",
          "type": "address"
        }
      ],
      "stateMutability": "view",
      "type": "function"
    },
    {
      "inputs": [
        {
          "internalType": "bytes",
          "name": "",
          "type": "bytes"
        }
      ],
      "name": "performUpkeep",
      "outputs": [],
      "stateMutability": "nonpayable",
      "type": "function"
    },
    {
      "inputs": [
        {
          "internalType": "uint256",
          "name": "requestId",
          "type": "uint256"
        },
        {
          "internalType": "uint256[]",
          "name": "randomWords",
          "type": "uint256[]"
        }
      ],
      "name": "rawFulfillRandomWords",
      "outputs": [],
      "stateMutability": "nonpayable",
      "type": "function"
    }
  ],
  "transactionHash": "0x59657086e8bdc0d1f862e6607827efddfaec8f1028ae1f986515a8a8f536ed3b",
  "args": [
    "0x663F3ad617193148711d28f5334eE4Ed07016602",
    "1000000000000000",
    "0x79d3d8832d904592c0bf9818b621522c988bb8b0c05cdc3b15aea1b6e8db0c15",
    "1",
    "30",
    "500000"
  ],
  "numDeployments": 1,
  "solcInputHash": "1181548b22502955a2680562084484db",
  "bytecode": "0x6101406040523480156200001257600080fd5b5060405162001b2738038062001b278339818101604052810190620000389190620001eb565b858073ffffffffffffffffffffffffffffffffffffffff1660808173ffffffffffffffffffffffffffffffffffffffff1660601b8152505050336000806101000a81548173ffffffffffffffffffffffffffffffffffffffff021916908373ffffffffffffffffffffffffffffffffffffffff160217905550846002819055508360e081815250508161012081815250508267ffffffffffffffff1660c08167ffffffffffffffff1660c01b815250506000600560006101000a81548160ff02191690836001811115620001115762000110620002f3565b5b0217905550426004819055508063ffffffff166101008163ffffffff1660e01b815250508573ffffffffffffffffffffffffffffffffffffffff1660a08173ffffffffffffffffffffffffffffffffffffffff1660601b81525050505050505050620003a9565b600081519050620001898162000327565b92915050565b600081519050620001a08162000341565b92915050565b600081519050620001b7816200035b565b92915050565b600081519050620001ce8162000375565b92915050565b600081519050620001e5816200038f565b92915050565b60008060008060008060c087890312156200020b576200020a62000322565b5b60006200021b89828a0162000178565b96505060206200022e89828a01620001a6565b95505060406200024189828a016200018f565b94505060606200025489828a01620001d4565b93505060806200026789828a01620001a6565b92505060a06200027a89828a01620001bd565b9150509295509295509295565b60006200029482620002a5565b9050919050565b6000819050919050565b600073ffffffffffffffffffffffffffffffffffffffff82169050919050565b6000819050919050565b600063ffffffff82169050919050565b600067ffffffffffffffff82169050919050565b7f4e487b7100000000000000000000000000000000000000000000000000000000600052602160045260246000fd5b600080fd5b620003328162000287565b81146200033e57600080fd5b50565b6200034c816200029b565b81146200035857600080fd5b50565b6200036681620002c5565b81146200037257600080fd5b50565b6200038081620002cf565b81146200038c57600080fd5b50565b6200039a81620002df565b8114620003a657600080fd5b50565b60805160601c60a05160601c60c05160c01c60e0516101005160e01c61012051611714620004136000396000818161073e0152610875015260006105a00152600061055c0152600061057d015260006105200152600081816103aa01526103fe01526117146000f3fe6080604052600436106100f35760003560e01c80636cff74731161008a578063c1af578511610059578063c1af57851461030b578063c1c244e814610315578063e55ae4e814610340578063fd6673f51461037d576100f3565b80636cff74731461024c5780636e04ff0d146102775780638b5b9ccc146102b557806391ad27b4146102e0576100f3565b806353a2c19a116100c657806353a2c19a146101a05780635f1b0fd8146101cb57806360654e47146101f65780636b68c03c14610221576100f3565b80631fe543e3146100f85780634585e33b14610121578063473f1ddc1461014a578063481c6a7514610175575b600080fd5b34801561010457600080fd5b5061011f600480360381019061011a9190611001565b6103a8565b005b34801561012d57600080fd5b5061014860048036038101906101439190610f11565b610468565b005b34801561015657600080fd5b5061015f610668565b60405161016c91906111cb565b60405180910390f35b34801561018157600080fd5b5061018a610692565b60405161019791906111cb565b60405180910390f35b3480156101ac57600080fd5b506101b56106b6565b6040516101c291906112cf565b60405180910390f35b3480156101d757600080fd5b506101e06106c5565b6040516101ed91906112cf565b60405180910390f35b34801561020257600080fd5b5061020b6106d2565b60405161021891906112cf565b60405180910390f35b34801561022d57600080fd5b506102366106da565b60405161024391906112b4565b60405180910390f35b34801561025857600080fd5b506102616106f1565b60405161026e91906112cf565b60405180910390f35b34801561028357600080fd5b5061029e60048036038101906102999190610f5e565b6106fb565b6040516102ac929190611231565b60405180910390f35b3480156102c157600080fd5b506102ca6107e3565b6040516102d7919061120f565b60405180910390f35b3480156102ec57600080fd5b506102f5610871565b60405161030291906112cf565b60405180910390f35b610313610899565b005b34801561032157600080fd5b5061032a6109ea565b60405161033791906112cf565b60405180910390f35b34801561034c57600080fd5b5061036760048036038101906103629190610fa7565b6109f4565b60405161037491906111cb565b60405180910390f35b34801561038957600080fd5b50610392610a3c565b60405161039f91906112cf565b60405180910390f35b7f000000000000000000000000000000000000000000000000000000000000000073ffffffffffffffffffffffffffffffffffffffff163373ffffffffffffffffffffffffffffffffffffffff161461045a57337f00000000000000000000000000000000000000000000000000000000000000006040517f1cf993f40000000000000000000000000000000000000000000000000000000081526004016104519291906111e6565b60405180910390fd5b6104648282610a49565b5050565b6000610482604051806020016040528060008152506106fb565b509050806104f15747600180549050600560009054906101000a900460ff1660018111156104b3576104b26115f4565b5b6040517f6e195f250000000000000000000000000000000000000000000000000000000081526004016104e8939291906112ea565b60405180910390fd5b6001600560006101000a81548160ff02191690836001811115610517576105166115f4565b5b021790555060007f000000000000000000000000000000000000000000000000000000000000000073ffffffffffffffffffffffffffffffffffffffff16635d3b1d307f00000000000000000000000000000000000000000000000000000000000000007f000000000000000000000000000000000000000000000000000000000000000060037f000000000000000000000000000000000000000000000000000000000000000060016040518663ffffffff1660e01b81526004016105e1959493929190611261565b602060405180830381600087803b1580156105fb57600080fd5b505af115801561060f573d6000803e3d6000fd5b505050506040513d601f19601f820116820180604052508101906106339190610fd4565b9050807febf56642252004c18a776f30d528e7a0ce8c5db14b6596fb6550f630c8a24c6c60405160405180910390a250505050565b6000600360009054906101000a900473ffffffffffffffffffffffffffffffffffffffff16905090565b60008054906101000a900473ffffffffffffffffffffffffffffffffffffffff1681565b6000600163ffffffff16905090565b6000600361ffff16905090565b600047905090565b6000600560009054906101000a900460ff16905090565b6000600254905090565b600060606000600560009054906101000a900460ff166001811115610723576107226115f4565b5b60006001811115610737576107366115f4565b5b14905060007f00000000000000000000000000000000000000000000000000000000000000006004544261076b9190611403565b1190506000806001805490501190506000804711905082801561078b5750835b80156107945750815b801561079d5750805b9550856040518060400160405280600381526020017f30783000000000000000000000000000000000000000000000000000000000008152509550955050505050915091565b6060600180548060200260200160405190810160405280929190818152602001828054801561086757602002820191906000526020600020905b8160009054906101000a900473ffffffffffffffffffffffffffffffffffffffff1673ffffffffffffffffffffffffffffffffffffffff168152602001906001019080831161081d575b5050505050905090565b60007f0000000000000000000000000000000000000000000000000000000000000000905090565b6002543410156108d5576040517fa4078c2400000000000000000000000000000000000000000000000000000000815260040160405180910390fd5b600060018111156108e9576108e86115f4565b5b600560009054906101000a900460ff16600181111561090b5761090a6115f4565b5b14610942576040517f823ea8bb00000000000000000000000000000000000000000000000000000000815260040160405180910390fd5b6001339080600181540180825580915050600190039060005260206000200160009091909190916101000a81548173ffffffffffffffffffffffffffffffffffffffff021916908373ffffffffffffffffffffffffffffffffffffffff1602179055503373ffffffffffffffffffffffffffffffffffffffff167f1d64fb5ba9f2548c5b98468d58f25b87b9e866afee0122e92d9fe722bf85076c60405160405180910390a2565b6000600454905090565b600060018281548110610a0a57610a09611623565b5b9060005260206000200160009054906101000a900473ffffffffffffffffffffffffffffffffffffffff169050919050565b6000600180549050905090565b600060018054905082600081518110610a6557610a64611623565b5b6020026020010151610a779190611565565b9050600060018281548110610a8f57610a8e611623565b5b9060005260206000200160009054906101000a900473ffffffffffffffffffffffffffffffffffffffff16905060018281548110610ad057610acf611623565b5b9060005260206000200160009054906101000a900473ffffffffffffffffffffffffffffffffffffffff16600360006101000a81548173ffffffffffffffffffffffffffffffffffffffff021916908373ffffffffffffffffffffffffffffffffffffffff160217905550600067ffffffffffffffff811115610b5657610b55611652565b5b604051908082528060200260200182016040528015610b845781602001602082028036833780820191505090505b5060019080519060200190610b9a929190610cdc565b506000600560006101000a81548160ff02191690836001811115610bc157610bc06115f4565b5b02179055504260048190555060008173ffffffffffffffffffffffffffffffffffffffff1647604051610bf3906111b6565b60006040518083038185875af1925050503d8060008114610c30576040519150601f19603f3d011682016040523d82523d6000602084013e610c35565b606091505b5050905080610c70576040517f1c94012000000000000000000000000000000000000000000000000000000000815260040160405180910390fd5b600360009054906101000a900473ffffffffffffffffffffffffffffffffffffffff1673ffffffffffffffffffffffffffffffffffffffff167f5b690ec4a06fe979403046eaeea5b3ce38524683c3001f662c8b5a829632f7df60405160405180910390a25050505050565b828054828255906000526020600020908101928215610d55579160200282015b82811115610d545782518260006101000a81548173ffffffffffffffffffffffffffffffffffffffff021916908373ffffffffffffffffffffffffffffffffffffffff16021790555091602001919060010190610cfc565b5b509050610d629190610d66565b5090565b5b80821115610d7f576000816000905550600101610d67565b5090565b6000610d96610d9184611346565b611321565b90508083825260208201905082856020860282011115610db957610db861168b565b5b60005b85811015610de95781610dcf8882610ee7565b845260208401935060208301925050600181019050610dbc565b5050509392505050565b6000610e06610e0184611372565b611321565b905082815260208101848484011115610e2257610e21611690565b5b610e2d8482856114f2565b509392505050565b600082601f830112610e4a57610e49611686565b5b8135610e5a848260208601610d83565b91505092915050565b60008083601f840112610e7957610e78611686565b5b8235905067ffffffffffffffff811115610e9657610e95611681565b5b602083019150836001820283011115610eb257610eb161168b565b5b9250929050565b600082601f830112610ece57610ecd611686565b5b8135610ede848260208601610df3565b91505092915050565b600081359050610ef6816116c7565b92915050565b600081519050610f0b816116c7565b92915050565b60008060208385031215610f2857610f2761169a565b5b600083013567ffffffffffffffff811115610f4657610f45611695565b5b610f5285828601610e63565b92509250509250929050565b600060208284031215610f7457610f7361169a565b5b600082013567ffffffffffffffff811115610f9257610f91611695565b5b610f9e84828501610eb9565b91505092915050565b600060208284031215610fbd57610fbc61169a565b5b6000610fcb84828501610ee7565b91505092915050565b600060208284031215610fea57610fe961169a565b5b6000610ff884828501610efc565b91505092915050565b600080604083850312156110185761101761169a565b5b600061102685828601610ee7565b925050602083013567ffffffffffffffff81111561104757611046611695565b5b61105385828601610e35565b9150509250929050565b60006110698383611075565b60208301905092915050565b61107e81611449565b82525050565b61108d81611437565b82525050565b600061109e826113b3565b6110a881856113d6565b93506110b3836113a3565b8060005b838110156110e45781516110cb888261105d565b97506110d6836113c9565b9250506001810190506110b7565b5085935050505092915050565b6110fa8161145b565b82525050565b61110981611467565b82525050565b600061111a826113be565b61112481856113e7565b9350611134818560208601611501565b61113d8161169f565b840191505092915050565b611151816114e0565b82525050565b60006111646000836113f8565b915061116f826116b0565b600082019050919050565b61118381611484565b82525050565b611192816114b2565b82525050565b6111a1816114bc565b82525050565b6111b0816114cc565b82525050565b60006111c182611157565b9150819050919050565b60006020820190506111e06000830184611084565b92915050565b60006040820190506111fb6000830185611084565b6112086020830184611084565b9392505050565b600060208201905081810360008301526112298184611093565b905092915050565b600060408201905061124660008301856110f1565b8181036020830152611258818461110f565b90509392505050565b600060a0820190506112766000830188611100565b61128360208301876111a7565b611290604083018661117a565b61129d6060830185611198565b6112aa6080830184611198565b9695505050505050565b60006020820190506112c96000830184611148565b92915050565b60006020820190506112e46000830184611189565b92915050565b60006060820190506112ff6000830186611189565b61130c6020830185611189565b6113196040830184611189565b949350505050565b600061132b61133c565b90506113378282611534565b919050565b6000604051905090565b600067ffffffffffffffff82111561136157611360611652565b5b602082029050602081019050919050565b600067ffffffffffffffff82111561138d5761138c611652565b5b6113968261169f565b9050602081019050919050565b6000819050602082019050919050565b600081519050919050565b600081519050919050565b6000602082019050919050565b600082825260208201905092915050565b600082825260208201905092915050565b600081905092915050565b600061140e826114b2565b9150611419836114b2565b92508282101561142c5761142b611596565b5b828203905092915050565b600061144282611492565b9050919050565b600061145482611492565b9050919050565b60008115159050919050565b6000819050919050565b600081905061147f826116b3565b919050565b600061ffff82169050919050565b600073ffffffffffffffffffffffffffffffffffffffff82169050919050565b6000819050919050565b600063ffffffff82169050919050565b600067ffffffffffffffff82169050919050565b60006114eb82611471565b9050919050565b82818337600083830152505050565b60005b8381101561151f578082015181840152602081019050611504565b8381111561152e576000848401525b50505050565b61153d8261169f565b810181811067ffffffffffffffff8211171561155c5761155b611652565b5b80604052505050565b6000611570826114b2565b915061157b836114b2565b92508261158b5761158a6115c5565b5b828206905092915050565b7f4e487b7100000000000000000000000000000000000000000000000000000000600052601160045260246000fd5b7f4e487b7100000000000000000000000000000000000000000000000000000000600052601260045260246000fd5b7f4e487b7100000000000000000000000000000000000000000000000000000000600052602160045260246000fd5b7f4e487b7100000000000000000000000000000000000000000000000000000000600052603260045260246000fd5b7f4e487b7100000000000000000000000000000000000000000000000000000000600052604160045260246000fd5b600080fd5b600080fd5b600080fd5b600080fd5b600080fd5b600080fd5b6000601f19601f8301169050919050565b50565b600281106116c4576116c36115f4565b5b50565b6116d0816114b2565b81146116db57600080fd5b5056fea2646970667358221220c67b4044a81511f66883de7cdb85f9dbc377c0bb2d0cc92e7966d903b6f0c7fd64736f6c63430008070033",
  "devdoc": {
    "kind": "dev",
    "methods": {
      "checkUpkeep(bytes)": {
        "details": "This is the function that the Chainlink Keeper nodes call they look for `upkeepNeeded` to return True. the following should be true for this to return true: 1. The time interval has passed between raffle runs. 2. The lottery is open. 3. The contract has ETH. 4. Implicity, our subscription is funded with LINK. this function is from VRFKeepers, it performs offchain computation,is run by a offchain node and call VRF function to pick winner nodes are continuously looking for checkUpkeep to return true and as soon as it return true performUpkeep is called automatically"
      },
      "performUpkeep(bytes)": {
        "details": "This is the function which will be called automatically by keepers when checkUpkeep returns true and make state changes here calling requestRandomWords"
      }
    },
    "version": 1
  },
  "userdoc": {
    "kind": "user",
    "methods": {
      "enterLottery()": {
        "notice": "enterLottery() --> function which allows players to enter into lottery payable keyword allows the contract function to receive transaction to transfer money from contract balance we  do not require the keyword payable for the corrsponding function"
      },
      "getPlayers()": {
        "notice": "getPlayers function to return an array of addresses of all the players be cautious to use memory keyword in returning array of addresses"
      }
    },
    "version": 1
  },
  "storageLayout": {
    "storage": [
      {
        "astId": 1197,
        "contract": "contracts/Lottery.sol:Lottery",
        "label": "manager",
        "offset": 0,
        "slot": "0",
        "type": "t_address"
      },
      {
        "astId": 1200,
        "contract": "contracts/Lottery.sol:Lottery",
        "label": "players",
        "offset": 0,
        "slot": "1",
        "type": "t_array(t_address_payable)dyn_storage"
      },
      {
        "astId": 1202,
        "contract": "contracts/Lottery.sol:Lottery",
        "label": "minContribution",
        "offset": 0,
        "slot": "2",
        "type": "t_uint256"
      },
      {
        "astId": 1204,
        "contract": "contracts/Lottery.sol:Lottery",
        "label": "winner",
        "offset": 0,
        "slot": "3",
        "type": "t_address"
      },
      {
        "astId": 1223,
        "contract": "contracts/Lottery.sol:Lottery",
        "label": "s_lastTimeStamp",
        "offset": 0,
        "slot": "4",
        "type": "t_uint256"
      },
      {
        "astId": 1226,
        "contract": "contracts/Lottery.sol:Lottery",
        "label": "s_lotteryState",
        "offset": 0,
        "slot": "5",
        "type": "t_enum(LotteryState)1195"
      }
    ],
    "types": {
      "t_address": {
        "encoding": "inplace",
        "label": "address",
        "numberOfBytes": "20"
      },
      "t_address_payable": {
        "encoding": "inplace",
        "label": "address payable",
        "numberOfBytes": "20"
      },
      "t_array(t_address_payable)dyn_storage": {
        "base": "t_address_payable",
        "encoding": "dynamic_array",
        "label": "address payable[]",
        "numberOfBytes": "32"
      },
      "t_enum(LotteryState)1195": {
        "encoding": "inplace",
        "label": "enum Lottery.LotteryState",
        "numberOfBytes": "1"
      },
      "t_uint256": {
        "encoding": "inplace",
        "label": "uint256",
        "numberOfBytes": "32"
      }
    }
  }
}